:100000000C947A000C94A2000C94A2000C94D604D8
:100010000C94D6040C94D6040C94A2000C94A20068
:100020000C94A2000C94A2000C94A2000C94A200C8
:100030000C94A2000C94AF040C94A2000C94A200A7
:100040000C9465040C94A2000C94A2000C94A200E1
:100050000C94A2000C94A2000C94A2000C94A20098
:100060000C9450050C94A200084AD73B3BCE016E7D
:1000700084BCBFFDC12F3D6C74319ABD56833DDAFF
:100080003D00C77F11BED9E4BB4C3E916BAAAABE0E
:10009000000000803F000000000800020100000393
:1000A0000407000000000000000000000000250020
:1000B00028002B0000000000240027002A00000078
:1000C000000023002600290004040404040404049E
:1000D00002020202020203030303030301020408F3
:1000E00010204080010204081020010204081020A2
:1000F000BB0FB10F11241FBECFEFD8E0DEBFCDBFC5
:1001000011E0A0E0B1E0E8EEF7E202C005900D9248
:10011000A632B107D9F723E0A6E2B1E001C01D92F3
:10012000AC3FB207E1F710E0C9E7D0E004C0219787
:10013000FE010E94DC13C837D107C9F70E94340AB8
:100140000C94E7130C9400008091A50290E020919C
:10015000A602821B910908953FB7F8948091C601C9
:100160009091C701A091C801B091C90126B5A89B83
:1001700005C02F3F19F00196A11DB11D3FBFBA2F39
:10018000A92F982F8827820F911DA11DB11DBC0199
:10019000CD0142E0660F771F881F991F4A95D1F75E
:1001A00008952091CC013091CD012817390771F4C1
:1001B0009091CA018091CB01981741F0E091CA015A
:1001C000F0E0EF57FE4F808190E008958FEF9FEFB2
:1001D000089508951F93CF93DF93DC015C962D91D2
:1001E0003C915D972115310539F481E090E013963B
:1001F0009C938E9312973DC05196ED91FC9152972E
:1002000050969C915097892F80951FB75E964C9180
:100210005E9741FB772770F941FD6095F894408126
:10022000772311F0492B01C048234083E90121972E
:10023000F1F748E0508160FF02C0592B01C05823FC
:100240005083E9012197F1F76695415099F777239B
:1002500021F090818923808303C08081982B908333
:100260001FBF5C968D919C915D970197F1F721E0FE
:1002700030E0C901DF91CF911F9108952091CC0109
:100280003091CD012817390771F48091CB0120916D
:10029000CA0190E0805C9F4F821B910960E470E08E
:1002A0000E94B413089580E090E008952091CC015D
:1002B0003091CD0128173907B9F49091CA01809186
:1002C000CB01981789F0E091CA01F0E0EF57FE4F9B
:1002D00080812091CA0130E02F5F3F4F2F73332779
:1002E0002093CA0190E008958FEF9FEF0895E09169
:1002F000CC01F091CD01E817F90769F4A389B4891D
:100300009C918589809589238C931092CD011092C0
:10031000CC0181E0089580E0089585ED8093BC00D4
:100320008091BC0084FDFCCF1092A40208954091FE
:100330005C01262F30E0240F311D21323105DCF421
:100340002091A4022430C9F4FC0180E090E08617DB
:1003500058F430915C012191DC01A65CBE4FA30FE3
:10036000B11D2C930196F3CF80915C01680F6093CF
:100370005C0180E0089581E0089582E00895089589
:10038000E091A6028091A502E81730F4F0E0E9556B
:10039000FD4F808190E008958FEF9FEF0895909139
:1003A000A6028091A502981750F4E92FF0E0E955D4
:1003B000FD4F208130E09F5F9093A60202C02FEF97
:1003C0003FEFC9010895CF92DF92EF92FF920F9312
:1003D0001F93CF93DF937C01262F972F8A01809163
:1003E000C902882391F0C62FD72F6E01C40ED51EE7
:1003F000CC15DD0571F06991D701ED91FC9101906B
:10040000F081E02DC7010995F3CF642F822F0E9460
:100410009701C801DF91CF911F910F91FF90EF904D
:10042000DF90CF900895CF93DF931F92CDB7DEB7C3
:1004300069832091C9022223D1F02091C702203282
:1004400040F021E030E0FC013383228380E090E043
:1004500015C08091C802E82FF0E0E25AFD4F998163
:1004600090838F5F8093C8028093C70205C061E0CC
:10047000CE0101960E94970181E090E00F90DF91FC
:10048000CF910895089580E090E00895FC01818166
:1004900081113BC06A30710509F047C0DF01129637
:1004A0009F01265F3F4FA217B30719F09D9189273F
:1004B000FACF9081891339C0838190E0982F8827E3
:1004C0002281822B90932E0180932D01858190E0D3
:1004D000982F88272481822B90932C0180932B01C5
:1004E000878190E0982F88272681822B90932A017C
:1004F00080932901818590E0982F88272085822B81
:1005000090932801809327010895813071F464301D
:10051000710559F4228182279381892730818313C1
:1005200004C0209300019093260108950E94E213D5
:100530004F925F926F927F928F929F92AF92BF92F3
:10054000CF92DF92EF92FF920F931F93CF93DF939F
:1005500000D000D01F92CDB7DEB7ADB6BEB6809149
:10056000F7039091F803892BE9F580913901982FD1
:10057000909590FB80F9809339018093300110921F
:1005800031011092320180932F010DB71EB7A09157
:10059000F703B091F803109709F4F6C0FFE2EF2ECD
:1005A000F1E0FF2E61E070E041E050E091E020E0FA
:1005B00030E098C08091F7039091F803DC01ED9151
:1005C000FC910284F385E02D0995811176C060903D
:1005D000F9037090FA036114710499F41092F60310
:1005E0001092F5038091F7039091F803DC01ED91EF
:1005F000FC910084F185E02D099518161906D4F2B6
:10060000B4CF4DB65EB66091F5037091F603EDB7C9
:10061000FEB7E61BF70B0FB6F894FEBF0FBEEDBF9B
:100620008DB79EB701966115710519F460E070E011
:100630003CC040E050E020E030E026173707A0F54E
:10064000D901AB50BD4F9C90D901A90DB11D6A17BE
:100650007B0718F4F1E09F12E9CF2F5F3F4F6C0149
:10066000C40ED51EDA017D01EFEFEE1AFE0A8E2CC4
:10067000841A891458F4D901AB50BD4FEC91D601BE
:10068000ED936D01D7012F5F3F4FEDCFAD01FFEF30
:100690009F1641F02617370729F0D701480F591F39
:1006A000FA011082AD01C9CFBA01F30109950FB665
:1006B000F8945EBE0FBE4DBE91CF2091F5033091F0
:1006C000F603A9014F5F5F4F4F3F510511F008F04E
:1006D00089CF5093F6034093F503F901EB50FD4F9A
:1006E000808380CFF70181917F01FA0131964F011C
:1006F000CC24C394D12CCC0EDD1E811107C02C0D4F
:100700003D1DF90190839A01A40113C0C40ED51EAA
:10071000F60180839F5F9F3F71F4CC24C394D12C5A
:10072000CC0EDD1E2C0D3D1DF90190834E5F5F4FF9
:10073000940191E001C0A4016F5F7F4F65307105A6
:1007400089F6E1E0F0E0EC0FFD1FE20FF31F90836C
:10075000ED91FC9111970280F381E02DBE016F5F56
:100760007F4FCD0109958091F7039091F803DC014B
:10077000ED91FC910190F081E02D60E009950FB6BC
:10078000F8941EBF0FBE0DBF0FB6F894BEBE0FBECD
:10079000ADBE0F900F900F900F900F90DF91CF9103
:1007A0001F910F91FF90EF90DF90CF90BF90AF908F
:1007B0009F908F907F906F905F904F90089590E002
:1007C000FC01EA56FF4F3491FC01E452FF4F2491A3
:1007D000FC01E853FF4FE491EE2309F43BC03323BF
:1007E00039F1333091F038F43130A9F0323001F57D
:1007F00084B58F7D12C0373091F03830A1F034309D
:10080000B9F4809180008F7D03C0809180008F7744
:10081000809380000DC084B58F7784BD09C080911E
:10082000B0008F7703C08091B0008F7D8093B000BF
:10083000F0E0EE0FFF1FE655FF4FA591B4918FB783
:10084000F894EC91611103C020952E2301C02E2B4A
:100850002C938FBF08958F929F92AF92BF92CF92A9
:10086000DF92EF92FF926B017C010E94AC004B0182
:100870005C01C114D104E104F104F1F00E94AC0068
:10088000DC01CB0188199909AA09BB09883E93406C
:10089000A105B10570F321E0C21AD108E108F10801
:1008A00088EE880E83E0981EA11CB11CC114D104EF
:1008B000E104F10419F7DDCFFF90EF90DF90CF90C6
:1008C000BF90AF909F908F9008951F920F920FB698
:1008D0000F9211242F933F938F939F93AF93BF93C6
:1008E0008091C2019091C301A091C401B091C50152
:1008F0003091C10123E0230F2D3720F40196A11D73
:10090000B11D05C026E8230F0296A11DB11D20933D
:10091000C1018093C2019093C301A093C401B0931D
:10092000C5018091C6019091C701A091C801B09105
:10093000C9010196A11DB11D8093C6019093C70105
:10094000A093C801B093C901BF91AF919F918F91BE
:100950003F912F910F900FBE0F901F9018951F92EF
:100960000F920FB60F9211242F933F934F935F93E3
:100970006F937F938F939F93AF93BF93EF93FF9367
:10098000E091D201F091D3010995FF91EF91BF91D0
:10099000AF919F918F917F916F915F914F913F9117
:1009A0002F910F900FBE0F901F9018951F920F92CE
:1009B0000FB60F9211242F933F934F935F936F9332
:1009C0007F938F939F93AF93BF93EF93FF93E091A8
:1009D000CC01F091CD01309709F451C0968DA685D8
:1009E000B785858591FF04C09C91892329F447C070
:1009F0009C91892309F043C0A389B4899C9185897E
:100A0000809589238C93868997890197F1F7608D6A
:100A1000718DA685B785558538E020E0CB0101971B
:100A2000F1F7822F90E095958795282F4C914523DB
:100A300009F02068315091F7868D81FD20958091D5
:100A4000CB0190E001968F7399273091CA01381736
:100A500049F0A091CB01B0E0AF57BE4F2C938093EB
:100A6000CB0103C0868D8160868F828D938D019727
:100A7000F1F7A389B4899C918589892B8C93FF9187
:100A8000EF91BF91AF919F918F917F916F915F9106
:100A90004F913F912F910F900FBE0F901F9018957F
:100AA0001F920F920FB60F9211242F933F934F93E3
:100AB0005F936F937F938F939F93AF93BF93EF93C6
:100AC000FF938091B900887F803609F49CC068F557
:100AD000883209F45BC090F4803109F454C038F4D2
:100AE000882309F4F6C0883009F44DC0F6C0883177
:100AF00009F44CC0803209F45DC0EFC0803409F4C1
:100B000068C048F4803309F455C0883309F0E5C063
:100B10008093A202D8C0803509F44FC0883509F40B
:100B20005DC0883409F0D9C0D6C0883909F4C7C07F
:100B3000A8F4883709F467C038F4883609F463C02C
:100B4000803709F460C0C9C0883809F4B8C080395A
:100B500009F45FC0803809F0C0C05BC0803B09F475
:100B600086C038F4803A09F466C0883A09F47FC038
:100B7000B4C0803C09F4A7C0883C09F4A4C0883BF9
:100B800009F48AC0AAC080919F0210C09091A1026E
:100B90008091A002981770F5E091A10281E08E0F7C
:100BA0008093A102F0E0E258FD4F80818093BB006A
:100BB00085EC86C08093A2028EC0E091A10281E004
:100BC0008E0F8093A1028091BB00F0E0E258FD4FB0
:100BD00080839091A1028091A0026EC0E091A10259
:100BE00081E08E0F8093A1028091BB00F0E0E2587B
:100BF000FD4F80838091A30281116DC081E08093BD
:100C00009E0284EA61C083E08093A4021092800176
:100C1000CFCF80918001803208F051C0E0918001F7
:100C200081E08E0F809380018091BB00F0E0E05A5C
:100C3000FE4F8083BDCF85EC8093BC001092A40250
:100C400080918001803230F4E0918001F0E0E05A40
:100C5000FE4F10826091800170E0E0915E01F091A2
:100C60005F0180E691E009951092800136C084E032
:100C70008093A40210925D0110925C01E0915A01F0
:100C8000F0915B01099580915C01811105C081E0C3
:100C900080935C0110923A01E0915D0181E08E0F3A
:100CA00080935D01F0E0E65CFE4F80818093BB00A5
:100CB00090915D0180915C01981708F479CF85E8E7
:100CC0008093BC000AC085EC8093BC001092A40203
:100CD00004C01092A2020E948D01FF91EF91BF917A
:100CE000AF919F918F917F916F915F914F913F91C4
:100CF0002F910F900FBE0F901F901895CF92DF92FB
:100D0000EF92FF920F931F93CF93DF936C017A01C1
:100D10008B01C0E0D0E0CE15DF0589F0D8016D91E0
:100D20008D01D601ED91FC910190F081E02DC6017D
:100D30000995892B11F47E0102C02196ECCFC701E1
:100D4000DF91CF911F910F91FF90EF90DF90CF90A7
:100D5000089591E09093C9028093FB031092C8021A
:100D60001092C70208959091A4029111FCCF6132B4
:100D700008F060E291E09093A4029093A3022FEF19
:100D80002093A2021092A102260F2093A00290931A
:100D90009F0290919F02880F892B80939F028091E0
:100DA0009E02813061F410929E0280919F02809396
:100DB000BB008091BC0083FDF8CF85EC01C085EEBF
:100DC0008093BC008091A4028130E1F38091A10264
:100DD000861710F46091A102AEE7B2E027EA32E094
:100DE000F9018E2F821B861718F48D918193F9CF0C
:100DF0001092A6026093A502862F08952091C70243
:100E00009091FB03213208F04AC08091A402811125
:100E1000FCCF32E03093A40231E03093A3023FEFE5
:100E20003093A2021092A1022093A002AEE5B2E09C
:100E30004EE752E0FA013E2F341B321718F43D9171
:100E40003193F9CF10929F0220919F02990F922B1C
:100E500090939F0290919E02913061F410929E02B5
:100E600090919F029093BB009091BC0093FDF8CFAE
:100E700095EC01C095EE9093BC009091A402923045
:100E8000E1F39091A2029F3F79F08091A20280321B
:100E900041F08091A202803331F084E005C081E00E
:100EA00003C082E001C083E01092C8021092C70222
:100EB0001092C90208956F927F928F929F92AF9283
:100EC000BF92CF92DF92EF92FF920F931F93CF9337
:100ED000DF938C0180915C020E94A90663E48AEC96
:100EE00092E00E9413020E94FE0680915C020E9422
:100EF000A90666E070E080915C0290915D020E941C
:100F0000B3068091A50290E02091A602821B910970
:100F100086309105ECF38AEC92E00E94CF01682EB6
:100F20008AEC92E00E94CF01782E8AEC92E00E9437
:100F3000CF01882E8AEC92E00E94CF01982E8AEC95
:100F400092E00E94CF01A82E8AEC92E00E94CF018D
:100F5000B82ED62CC12CB6016729072E000C880BA1
:100F6000990B0E9404126093FC017093FD01809321
:100F7000FE019093FF01F82CE12CB7016929072E9F
:100F8000000C880B990B0E9404126093000270936E
:100F900001028093020290930302DA2D80E0C82FB1
:100FA000BE016B29072E000C880B990B0E940412BE
:100FB00060930402709305028093060290930702E7
:100FC0008CE0ECEFF1E0D80101900D928A95E1F709
:100FD000C801DF91CF911F910F91FF90EF90DF90AB
:100FE000CF90BF90AF909F908F907F906F9008951B
:100FF0004F925F926F927F928F929F92AF92BF9229
:10100000CF92DF92EF92FF921F93CF93DF93CDB7F2
:10101000DEB7A4970FB6F894DEBF0FBECDBF81E058
:1010200080935B0212E319A21AA21BA21CA21D8EBE
:101030001E8E1F8E18A2198E1A8E1B8E1C8EC12C0E
:10104000D12C76014601570126013701CE010196C8
:101050000E945B078091FC019091FD01A091FE012F
:10106000B091FF018D879E87AF87B88B9C01AD0142
:10107000C301B2010E947E102B013C01809100024D
:1010800090910102A0910202B0910302898B9A8B88
:10109000AB8BBC8B9C01AD01C501B4010E947E10DD
:1010A0004B015C018091040290910502A09106021F
:1010B000B09107028D8B9E8BAF8BB88F9C01AD01D9
:1010C000C701B6010E947E106B017C012D853E8513
:1010D0004F855889CA01B9010E94E8129B01AC01F1
:1010E000698D7A8D8B8D9C8D0E947E10698F7A8F91
:1010F0008B8F9C8F29893A894B895C89CA01B901F8
:101100000E94E8129B01AC016D8D7E8D8F8D98A1A0
:101110000E947E106D8F7E8F8F8F98A32D893E89C0
:101120004F89588DCA01B9010E94E8129B01AC0198
:1011300069A17AA18BA19CA10E947E1069A37AA3C8
:101140008BA39CA365E070E080E090E00E942B04FC
:10115000115009F07BCF20E030E048E452E4C301B5
:10116000B2010E9461112B013C0160932C0270932B
:101170002D0280932E0290932F0220E030E048E46D
:1011800052E4C501B4010E9461114B015C016093FE
:10119000300270933102809332029093330220E048
:1011A00030E048E452E4C701B6010E9461116B01CE
:1011B0007C016093340270933502809336029093E1
:1011C000370220E030E048E452E4698D7A8D8B8D5F
:1011D0009C8D0E9461116D877E878F87988BA301FC
:1011E0009201C301B2010E94E8129B01AC016D851E
:1011F0007E858F8598890E947D100E945B13609385
:1012000038027093390280933A0290933B0220E0B7
:1012100030E048E452E46D8D7E8D8F8D98A10E9460
:1012200061112B013C01A5019401C501B4010E948B
:10123000E8129B01AC01C301B2010E947D100E9423
:101240005B1360933C0270933D0280933E02909347
:101250003F0220E030E048E452E469A17AA18BA18A
:101260009CA10E9461114B015C01A7019601C7017D
:10127000B6010E94E8129B01AC01C501B4010E94B5
:101280007D100E945B136093400270934102809333
:10129000420290934302C0905702D0905802E090CF
:1012A0005902F0905A0220E030E0A901C701B601CE
:1012B0000E94DB1218160CF079C0C701B6010E941B
:1012C000D311F62E662309F44BC080915B02811185
:1012D00002C00E94F8076F2D70E080E090E00E944D
:1012E00004124B015C019B01AC01609138027091CA
:1012F000390280913A0290913B020E94E812609379
:101300002002709321028093220290932302A50170
:10131000940160913C0270913D0280913E02909157
:101320003F020E94E812609324027093250280938A
:10133000260290932702A5019401609140027091CA
:10134000410280914202909143020E94E812609310
:1013500028027093290280932A0290932B0218C0CE
:101360001092200210922102109222021092230267
:101370001092240210922502109226021092270247
:10138000109228021092290210922A0210922B0227
:101390006F2D70E080E090E00E940212609357028F
:1013A000709358028093590290935A02A4960FB6F4
:1013B000F894DEBF0FBECDBFDF91CF911F91FF909C
:1013C000EF90DF90CF90BF90AF909F908F907F90E5
:1013D0006F905F904F900895CF93DF93D82FC62FD3
:1013E00080915C020E94A9066D2F8AEC92E00E9417
:1013F00013026C2F8AEC92E00E941302DF91CF91CE
:101400000C94FE061F93CF93DF931F92CDB7DEB7E8
:10141000682F80915C0269830E94A90669818AEC29
:1014200092E00E9413020E94FE0680915C020E94DC
:10143000A90661E070E080915C0290915D020E94DB
:10144000B3069091A5028091A6029817F1F38AEC59
:1014500092E00E94CF01182F0E94FE06812F0F906C
:10146000DF91CF911F910895CF93DF93CDB7DEB772
:10147000A4970FB6F894DEBF0FBECDBF789484B5A5
:10148000826084BD84B5816084BD85B5826085BD80
:1014900085B5816085BD80916E00816080936E000E
:1014A0001092810080918100826080938100809100
:1014B00081008160809381008091800081608093B1
:1014C00080008091B10084608093B1008091B00071
:1014D00081608093B00080917A00846080937A006C
:1014E00080917A00826080937A0080917A00816096
:1014F00080937A0080917A00806880937A001092BD
:10150000C10086E492E09093FA038093F90310926D
:10151000F1021092F0021092EF021092EE0210927D
:10152000ED021092EC028DE991E09093F30280932A
:10153000F2029091E202963108F057C02DEB30E0B4
:101540003093ED022093EC022BE931E03093EF026F
:101550002093EE022CE231E03093F1022093F0026E
:1015600020916800983050F031E09E3008F430E06F
:1015700081E001C0880F3A95EAF701C084E0822B30
:1015800080936800983038F09E3040F0963148F0F3
:1015900020E030E008C02DE630E005C02BE630E06A
:1015A00002C02CE630E03093EA022093E902983042
:1015B00030F481E001C0880F9A95EAF70EC0292F18
:1015C00030E09E3018F42850310902C02E50310905
:1015D00081E001C0880F2A95EAF78093EB028091A1
:1015E000F2029091F3020197F1F78091F00290914D
:1015F000F102892B21F18091CC019091CD0122E063
:10160000863D9207E1F0009711F00E9477018091EA
:10161000F4028E7F8093F4021092CB011092CA01E3
:1016200086ED92E09093CD018093CC01E091E902A8
:10163000F091EA0290818091EB02892B808386ED04
:1016400092E09093F8038093F70308E610E0CC242F
:10165000C39488E4D82E95E4E92E10935D0200939C
:101660005C021092A6021092A5021092C80210927B
:10167000C7021092A402C092A30210929E0261E0DF
:1016800082E10E94DF0361E083E10E94DF03809139
:10169000B9008E7F8093B9008091B9008D7F8093CF
:1016A000B900D092B800E092BC0010922C021092C7
:1016B0002D0210922E0210922F02109230021092E0
:1016C00031021092320210923302109234021092C0
:1016D0003502109236021092370210925B0210927D
:1016E00020021092210210922202109223021092E4
:1016F00024021092250210922602109227021092C4
:1017000028021092290210922A0210922B021092A3
:101710005702109258021092590210925A02809168
:101720005C020E94A90665E78AEC92E00E9413021F
:101730000E94FE0680915C020E94A90661E070E0B2
:1017400080915C0290915D020E94B3068AEC92E067
:101750000E94CF01F82E0E94FE0688E6F81639F0A6
:1017600064EF71E080E090E00E942B0476CF8BE67E
:101770000E94020A887F682F61608BE60E94EC0954
:101780008CEE90ECA9E7BDE380934F02909350025A
:10179000A0935102B09352028BE10E94020A682F7B
:1017A00068618BE10E94EC0980E49AEDAFE7B8E351
:1017B0008093530290935402A0935502B093560223
:1017C0008CE10E94020A682F677E8CE10E94EC097E
:1017D0008BE60E94020A682F6F7B8BE60E94EC0961
:1017E00080915B02811102C00E94F80720E030E086
:1017F00040E450E4609138027091390280913A02DD
:1018000090913B020E94E8126093200270932102A3
:10181000809322029093230220E030E040E450E4E1
:1018200060913C0270913D0280913E0290913F0296
:101830000E94E8126093240270932502809326028E
:101840009093270220E030E040E450E460914002B1
:101850007091410280914202909143020E94E812ED
:10186000609328027093290280932A0290932B029E
:1018700080E090E0A0E4B0E4809357029093580297
:10188000A0935902B0935A021092800080E1809395
:10189000810083E08093D0018FB78093D101F894C9
:1018A00084ED90E39093CF018093CE0190938700D5
:1018B000809386008091D1018FBF80918100887FC5
:1018C00080938100909181008091D001982B90931A
:1018D000810028E932E03093D3012093D20191E0D6
:1018E00090936F0090918100892B8093810000E09C
:1018F00010E0CE0101960E945B0780915B02C090D0
:101900004F02D0905002E0905102F0905202882392
:1019100009F451C020912C0230912D0240912E02E9
:1019200050912F026091FC017091FD018091FE01A8
:101930009091FF010E947D10A70196010E94E8127C
:10194000609314027093150280931602909317020D
:101950002091300230913102409132025091330295
:101960006091000270910102809102029091030245
:101970000E947D10A70196010E94E8126093180250
:101980007093190280931A0290931B0220913402E3
:101990003091350240913602509137026091040235
:1019A0007091050280910602909107020E947D10BD
:1019B000A701960132C0A70196016091FC017091C8
:1019C000FD018091FE019091FF010E94E812609359
:1019D0001402709315028093160290931702A701C8
:1019E0009601609100027091010280910202909133
:1019F00003020E94E8126093180270931902809308
:101A00001A0290931B02A701960160910402709143
:101A1000050280910602909107020E94E8126093ED
:101A20001C0270931D0280931E0290931F0220E0FF
:101A300030E0A901609157027091580280915902DB
:101A400090915A020E945C11882309F481C0C090D1
:101A50001402D0901502E0901602F090170220E0D8
:101A600030E0A901C701B6010E94DB12181624F06C
:101A7000F7FAF094F7F8F0942091200230912102C7
:101A80004091220250912302C701B6010E945C11CD
:101A900087FF08C0109214021092150210921602CD
:101AA00010921702C0901802D0901902E0901A020A
:101AB000F0901B0220E030E0A901C701B6010E94AE
:101AC000DB12181624F0F7FAF094F7F8F09420914E
:101AD0002402309125024091260250912702C7012D
:101AE000B6010E945C1187FF08C010921802109284
:101AF000190210921A0210921B02C0901C02D09080
:101B00001D02E0901E02F0901F0220E030E0A901CB
:101B1000C701B6010E94DB12181624F0F7FAF09400
:101B2000F7F8F094209128023091290240912A027E
:101B300050912B02C701B6010E945C1187FF08C0BB
:101B400010921C0210921D0210921E0210921F028F
:101B50008091140290911502A0911602B091170283
:101B60008D8B9E8BAF8BB88F80911802909119024C
:101B7000A0911A02B0911B02898B9A8BAB8BBC8B04
:101B800080911C0290911D02A0911E02B0911F0233
:101B900089A39AA3ABA3BCA380915C020E94A9066F
:101BA0006BE38AEC92E00E9413020E94FE06809191
:101BB0005C020E94A90666E070E080915C02909150
:101BC0005D020E94B3068091A50290E02091A602DA
:101BD000821B910986309105ECF38AEC92E00E9419
:101BE000CF01A82E8AEC92E00E94CF01B82E8AEC99
:101BF00092E00E94CF01C82E8AEC92E00E94CF01B1
:101C0000D82E8AEC92E00E94CF01E82E8AEC92E076
:101C10000E94CF01F82EAA8E198E698D7A8D6B29BC
:101C2000072E000C880B990B0E9404122B013C011B
:101C30006093F0017093F1018093F2019093F301AE
:101C4000CC8E1B8E6B8D7C8D6D29072E000C880B26
:101C5000990B0E9404124B015C016093F401709394
:101C6000F5018093F6019093F7013E2C212CB101F0
:101C70006F29072E000C880B990B0E9404126D87A8
:101C80007E878F87988B6093F8017093F90180931A
:101C9000FA019093FB01C0905302D0905402E0905F
:101CA0005502F0905602A7019601C301B2010E94AD
:101CB000E8122AE038EE4CE151E40E94E8126D8F00
:101CC0007E8F8F8F98A36093080270930902809390
:101CD0000A0290930B02A7019601C501B4010E946C
:101CE000E8122AE038EE4CE151E40E94E8122B01A0
:101CF0003C0160930C0270930D0280930E0290934E
:101D00000F02A70196016D857E858F8598890E94B7
:101D1000E8122AE038EE4CE151E40E94E8124B014F
:101D20005C016093100270931102809312029093F1
:101D30001302C090E801D090E901E090EA01F09030
:101D4000EB01A701960169897A898B899C890E9498
:101D5000E8122091EC013091ED014091EE0150919B
:101D6000EF010E947E10698B7A8B8B8B9C8BA70175
:101D700096016D897E898F89988D0E94E812209145
:101D8000E4013091E5014091E6015091E7010E94A4
:101D90007E106D8B7E8B8F8B988FA701960169A12A
:101DA0007AA18BA19CA10E94E8129B01AC016091D9
:101DB000E0017091E1018091E2019091E3010E94C4
:101DC0007E106093E0017093E1018093E2019093B3
:101DD000E301A3019201C301B2010E94E8126B0169
:101DE0007C01A5019401C501B4010E94E8129B0188
:101DF000AC01C701B6010E947E100E945B139B01DB
:101E0000AC016D8D7E8D8F8D98A10E94FD1020E01C
:101E100030E044E353E40E94E81290582BED3FE099
:101E200049E450E40E9461116D877E878F87988B0B
:101E30006093DC017093DD018093DE019093DF01FC
:101E4000A5019401C301B2010E94FD1020E030E021
:101E500044E353E40E94E8122BED3FE049E450E4F0
:101E60000E9461116B017C016093D8017093D901CC
:101E70008093DA019093DB010E94AC002091D401A1
:101E80003091D5014091D6015091D701621B730B5F
:101E9000840B950B0E94021220E034E244E759E4DF
:101EA0000E9461116093E8017093E9018093EA0157
:101EB0009093EB0128E431EE4AE75FE369897A8980
:101EC0008B899C890E94E8122B013C012AE037EDA6
:101ED00043EA5CE36D857E858F8598890E94E812D0
:101EE0009B01AC01C301B2010E947E106093EC0122
:101EF0007093ED018093EE019093EF0128E431EEB1
:101F00004AE75FE36D897E898F89988D0E94E81288
:101F10004B015C012AE037ED43EA5CE3C701B601FF
:101F20000E94E8129B01AC01C501B4010E947E1021
:101F30006093E4017093E5018093E6019093E701DB
:101F40000E94AC006093D4017093D5018093D601B8
:101F50009093D7010115110509F4CBCC0E94000024
:101F6000C8CC87E191E09093D7028093D60286EDAA
:101F700092E00C947701CF93DF931092CD021092F0
:101F8000CC0288EE93E0A0E0B0E08093CE02909384
:101F9000CF02A093D002B093D10225E031E030937C
:101FA000CB022093CA021092F6031092F50310920E
:101FB000F8031092F7031092FA031092F9031092AB
:101FC000D9021092D8028093DA029093DB02A09398
:101FD000DC02B093DD0287E191E09093D702809319
:101FE000D6021092ED021092EC021092EF021092C3
:101FF000EE021092F1021092F0021092F30210928F
:10200000F2026091F4026E7F6D7F6093F402669538
:10201000617081E0682783E00E94DF03EFEDF0E06C
:102020002491EBECF0E08491882399F090E0880F04
:10203000991FFC01EC54FF4FA591B491FC01E655AA
:10204000FF4F859194918FB7F894EC91E22BEC932C
:102050008FBFEFEDF0E0E491E093E602EBECF0E00F
:10206000E491F0E0EE0FFF1FE655FF4F859194914C
:102070009093E8028093E702EEEDF0E02491EAEC21
:10208000F0E084918823C1F090E0880F991FFC0153
:10209000EC54FF4FC591D491FC01E655FF4FA5913B
:1020A000B4919FB7F8948881E22FE0958E238883BE
:1020B0008C91E823EC939FBF8091F40281FD04C0D2
:1020C00061E082E00E94DF0382E08093E202EEEDB5
:1020D000F0E0E491E093E302EAECF0E0E491F0E078
:1020E000EE0FFF1FE254FF4F859194919093E5020C
:1020F0008093E402DF91CF9108955058BB27AA271F
:102100000E9495100C94A1120E94931238F00E9424
:102110009A1220F039F49F3F19F426F40C946912B6
:102120000EF4E095E7FB0C946312E92F0E94B212C3
:1021300058F3BA17620773078407950720F079F4FC
:10214000A6F50C94D4120EF4E0950B2EBA2FA02D08
:102150000B01B90190010C01CA01A0011124FF2754
:10216000591B99F0593F50F4503E68F11A16F0404F
:10217000A22F232F342F4427585FF3CF469537954E
:102180002795A795F0405395C9F77EF41F16BA0B13
:10219000620B730B840BBAF09150A1F0FF0FBB1FC1
:1021A000661F771F881FC2F70EC0BA0F621F731F0A
:1021B000841F48F4879577956795B795F7959E3F67
:1021C00008F0B0CF9395880F08F09927EE0F9795F8
:1021D000879508950E94931260F080E891E009F4D9
:1021E0009EEF0E949A1228F040E851E071F45EEFF1
:1021F0000CC00C9469120C94D412E92FE0780E9460
:10220000B21240F3092E052AB1F326173707480703
:10221000590738F00E2E07F8E02569F0E025E06454
:102220000AC0EF6307F8009407FADB01B9019D01CA
:10223000DC01CA01AD01EF930E9478110E94A11246
:102240000E942D115F91552339F02BED3FE049E4B9
:1022500050FD49EC0C947E100895DF93DD27B92FD3
:10226000BF7740E85FE31616170648075B0718F4C8
:10227000D92F0E94E0129F938F937F936F930E94B8
:102280009B13E8E6F0E00E946C120E94A1122F91CD
:102290003F914F915F910E94FB12DD2351F09058C6
:1022A000A2EA2AED3FE049EC5FE3D0785D270E9487
:1022B0009510DF910C94A1120E943F1208F481E066
:1022C00008950E9475110C94A1120E949A1258F060
:1022D0000E94931240F029F45F3F29F00C9463129E
:1022E00051110C94D5120C9469120E94B21268F329
:1022F0009923B1F3552391F3951B550BBB27AA27BF
:1023000062177307840738F09F5F5F4F220F331FF8
:10231000441FAA1FA9F335D00E2E3AF0E0E832D0C0
:1023200091505040E695001CCAF72BD0FE2F29D0C3
:10233000660F771F881FBB1F261737074807AB0795
:10234000B0E809F0BB0B802DBF01FF2793585F4F0A
:102350003AF09E3F510578F00C9463120C94D5121C
:102360005F3FE4F3983ED4F3869577956795B795EC
:10237000F7959F5FC9F7880F911D9695879597F9F7
:102380000895E1E0660F771F881FBB1F6217730770
:102390008407BA0720F0621B730B840BBA0BEE1F85
:1023A00088F7E09508950E94BA1288F09F5798F038
:1023B000B92F9927B751B0F0E1F0660F771F881F4A
:1023C000991F1AF0BA95C9F714C0B13091F00E9464
:1023D000D412B1E008950C94D412672F782F882777
:1023E000B85F39F0B93FCCF3869577956795B3958B
:1023F000D9F73EF490958095709561957F4F8F4FFA
:102400009F4F0895E89409C097FB3EF490958095FE
:10241000709561957F4F8F4F9F4F9923A9F0F92FAA
:1024200096E9BB279395F695879577956795B79528
:10243000F111F8CFFAF4BB0F11F460FF1BC06F5F0E
:102440007F4F8F4F9F4F16C0882311F096E911C020
:10245000772321F09EE8872F762F05C0662371F041
:1024600096E8862F70E060E02AF09A95660F771F55
:10247000881FDAF7880F9695879597F90895990F31
:102480000008550FAA0BE0E8FEEF16161706E8073E
:10249000F907C0F012161306E407F50798F0621B5F
:1024A000730B840B950B39F40A2661F0232B242B34
:1024B000252B21F408950A2609F4A140A6958FEF53
:1024C000811D811D089597F99F6780E870E060E0A5
:1024D00008959FEF80EC0895DF93CF931F930F93A0
:1024E000FF92EF92DF927B018C01689406C0DA2E96
:1024F000EF010E94FB12FE01E894A5912591359110
:1025000045915591A6F3EF010E949510FE019701A8
:10251000A801DA9469F7DF90EF90FF900F911F9177
:10252000CF91DF91089500240A9416161706180615
:102530000906089500240A941216130614060506C7
:102540000895092E0394000C11F4882352F0BB0F58
:1025500040F4BF2B11F460FF04C06F5F7F4F8F4FBB
:102560009F4F089557FD9058440F551F59F05F3FF6
:1025700071F04795880F97FB991F61F09F3F79F0A5
:1025800087950895121613061406551FF2CF469527
:10259000F1DF08C0161617061806991FF1CF8695A9
:1025A0007105610508940895E894BB27662777278D
:1025B000CB0197F908950E943F1208F48FEF089518
:1025C0009B01AC0160E070E080E89FE30C94611136
:1025D0000E94FB120C94A1120E94931238F00E94E8
:1025E0009A1220F0952311F00C9463120C94691246
:1025F00011240C94D5120E94B21270F3959FC1F36E
:10260000950F50E0551F629FF001729FBB27F00DA0
:10261000B11D639FAA27F00DB11DAA1F649F6627F5
:10262000B00DA11D661F829F2227B00DA11D621F44
:10263000739FB00DA11D621F839FA00D611D221FFE
:10264000749F3327A00D611D231F849F600D211DE2
:10265000822F762F6A2F11249F5750409AF0F1F065
:1026600088234AF0EE0FFF1FBB1F661F771F881FCE
:1026700091505040A9F79E3F510580F00C94631291
:102680000C94D5125F3FE4F3983ED4F3869577958A
:102690006795B795F795E7959F5FC1F7FE2B880F74
:1026A000911D9695879597F9089519F416F40C9451
:1026B00069120C949F130E94BA12B8F39923C9F3BC
:1026C000B6F39F57550B87FF0E94AD130024A0E679
:1026D00040EA900180585695979528F4805C660FE3
:1026E000771F881F20F026173707480730F4621B32
:1026F000730B840B202931294A2BA6951794079434
:10270000202531254A2758F7660F771F881F20F0AC
:1027100026173707480730F4620B730B840B200D24
:10272000311D411DA09581F7B901842F9158880F63
:102730009695879508959B01AC010C94E8129F3FF4
:1027400031F0915020F4879577956795B795880F6C
:10275000911D9695879597F9089591505040660F71
:10276000771F881FD2F7089597FB072E16F4009461
:1027700007D077FD09D00E94C81307FC05D03EF4AE
:10278000909581959F4F0895709561957F4F08951D
:10279000AA1BBB1B51E107C0AA1FBB1FA617B70787
:1027A00010F0A61BB70B881F991F5A95A9F78095A3
:1027B0009095BC01CD010895EE0FFF1F0590F49197
:1027C000E02D099481E090E0F8940C94E71310E078
:1027D000C9E7D0E004C0FE010E94DC132196CA378D
:0827E000D107C9F7F894FFCFFF
:1027E80001000000001302E3014302BF01A400CF6F
:1027F80001C00100000000EA007E064302E9003E35
:06280800015601D10000A1
:107800000C94343C0C94513C0C94513C0C94513CE1
:107810000C94513C0C94513C0C94513C0C94513CB4
:107820000C94513C0C94513C0C94513C0C94513CA4
:107830000C94513C0C94513C0C94513C0C94513C94
:107840000C94513C0C94513C0C94513C0C94513C84
:107850000C94513C0C94513C0C94513C0C94513C74
:107860000C94513C0C94513C11241FBECFEFD8E036
:10787000DEBFCDBF11E0A0E0B1E0ECE9FFE702C060
:1078800005900D92A230B107D9F712E0A2E0B1E065
:1078900001C01D92AD30B107E1F70E942D3D0C945F
:1078A000CC3F0C94003C982F959595959595959582
:1078B000905D8F708A307CF0282F295A8091C0000B
:1078C00085FFFCCF9093C6008091C00085FFFCCF60
:1078D0002093C6000895282F205DF0CF982F809127
:1078E000C00085FFFCCF9093C6000895EF92FF92F1
:1078F0000F931F93EE24FF2487018091C00087FD22
:1079000017C00894E11CF11C011D111D81E4E8164B
:1079100082E4F8068FE0080780E0180770F3E09132
:107920000401F091050109958091C00087FFE9CF1E
:107930008091C6001F910F91FF90EF9008950E94D3
:10794000763C982F8091C00085FFFCCF9093C600B5
:1079500091362CF490330CF09053892F089597555D
:10796000892F08951F930E949F3C182F0E949F3CCF
:107970001295107F810F1F9108951F93182F882350
:1079800021F00E94763C1150E1F71F9108951F935A
:10799000182F0E94763C803249F0809103018F5F5E
:1079A000809303018530C1F01F9108958091C0003C
:1079B00085FFFCCF84E18093C6008091C00085FFE5
:1079C000FCCF1093C6008091C00085FFFCCF80E102
:1079D0008093C6001F910895E0910401F091050184
:1079E00009951F9108950E94763C803241F0809164
:1079F00003018F5F80930301853081F008958091AA
:107A0000C00085FFFCCF84E18093C6008091C00058
:107A100085FFFCCF80E18093C6000895E0910401CA
:107A2000F09105010995089540E951E08823A1F0FE
:107A30002D9A28EE33E0FA013197F1F721503040CA
:107A4000D1F72D9828EE33E0FA013197F1F7215064
:107A50003040D1F7815061F708953F924F925F9285
:107A60006F927F928F929F92AF92BF92CF92DF924E
:107A7000EF92FF920F931F93CF93DF93000080E16B
:107A80008093C4001092C50088E18093C10086E015
:107A90008093C2005098589A259A81E00E94143D24
:107AA00024E1F22E9EE1E92E85E9D82E0FE0C02ECA
:107AB00010E1B12EAA24A394B1E49B2EA6E58A2E50
:107AC000F2E57F2EE0E26E2E79E4572E63E5462E36
:107AD00050E5352E0E94763C8033B1F18133B9F107
:107AE000803409F46FC0813409F476C0823409F41B
:107AF00085C0853409F488C0803531F1823521F1A3
:107B0000813511F1853509F485C0863509F48DC0BC
:107B1000843609F496C0843709F403C1853709F423
:107B200072C1863709F466C0809103018F5F80932C
:107B30000301853079F6E0910401F0910501099582
:107B40000E94763C803351F60E94F33CC3CF0E94E2
:107B5000763C803249F78091C00085FFFCCFF092DF
:107B6000C6008091C00085FFFCCF9092C600809136
:107B7000C00085FFFCCF8092C6008091C00085FFC9
:107B8000FCCF7092C6008091C00085FFFCCF609250
:107B9000C6008091C00085FFFCCF5092C600809146
:107BA000C00085FFFCCF4092C6008091C00085FFD9
:107BB000FCCF3092C6008091C00085FFFCCFB09210
:107BC000C60088CF0E94763C863808F4BDCF0E945C
:107BD000763C0E94F33C7ECF0E94763C803809F4CC
:107BE0009CC0813809F40BC1823809F43CC1883942
:107BF00009F48FC080E00E94C73C6CCF84E10E94F2
:107C0000BD3C0E94F33C66CF85E00E94BD3C0E94D3
:107C1000F33C60CF0E94763C809306010E94763C44
:107C2000809307010E94F33C55CF0E94763C80333D
:107C300009F41DC183E00E94BD3C80E00E94C73C66
:107C400049CF0E94763C809309020E94763C809343
:107C5000080280910C028E7F80930C020E94763C79
:107C6000853409F415C18091080290910902892B8D
:107C700089F000E010E00E94763CF801E85FFE4FDA
:107C800080830F5F1F4F80910802909109020817AF
:107C9000190788F30E94763C803209F045CF809125
:107CA0000C0280FF01C16091060170910701660F0F
:107CB000771F7093070160930601A0910802B091AD
:107CC00009021097C9F0E8E0F1E09B01AD014E0F09
:107CD0005F1FF999FECF32BD21BD819180BDFA9A17
:107CE000F99A2F5F3F4FE417F50799F76A0F7B1F4B
:107CF00070930701609306018091C00085FFFCCF5F
:107D0000F092C6008091C00085FFFCCFB092C60003
:107D1000E1CE83E00E94C73CDDCE82E00E94C73CFA
:107D2000D9CE0E94763C809309020E94763C8093D3
:107D300008028091060190910701880F991F909386
:107D40000701809306010E94763C853409F4A6C0A1
:107D500080910C028E7F80930C020E94763C8032D0
:107D600009F0B8CE8091C00085FFFCCFF092C6002C
:107D7000609108027091090261157105B9F140E046
:107D800050E080910C02A82FA170B82FB27011C0E2
:107D9000BB2309F45CC0E0910601F0910701319624
:107DA000F0930701E09306014F5F5F4F46175707B7
:107DB000E8F4AA2369F3F999FECF209106013091E6
:107DC000070132BD21BDF89A90B58091C00085FFB2
:107DD000FCCF9093C6002F5F3F4F30930701209355
:107DE00006014F5F5F4F4617570718F38091C00099
:107DF00085FDE5CE8091C00085FFF8CFE0CE81E023
:107E00000E94C73C67CE0E94763C803209F08CCE3F
:107E10008091C00085FFFCCFF092C6008091C00029
:107E200085FFFCCFE092C6008091C00085FFFCCFAB
:107E3000D092C6008091C00085FFFCCFC092C600E2
:107E40008091C00085FFFCCFB092C60043CEE09188
:107E50000601F091070194918091C00085FFFCCF4D
:107E60009093C6009CCF80E10E94C73C33CE0E9415
:107E7000763C0E94763C182F0E94763C112309F430
:107E800083C0113009F484C08FE00E94C73C22CE29
:107E900080910C02816080930C02E5CE80910C02EF
:107EA000816080930C0259CF809107018823880F4D
:107EB000880B8A2180930B02809106019091070123
:107EC000880F991F90930701809306018091080203
:107ED00080FF09C080910802909109020196909359
:107EE000090280930802F894F999FECF1127E091D6
:107EF0000601F0910701C8E0D1E08091080290915D
:107F00000902103091F40091570001700130D9F34B
:107F100003E000935700E89500915700017001308D
:107F2000D9F301E100935700E89509901990009169
:107F3000570001700130D9F301E000935700E89534
:107F40001395103498F011270091570001700130FB
:107F5000D9F305E000935700E895009157000170B0
:107F60000130D9F301E100935700E895329602976A
:107F700009F0C7CF103011F00296E5CF112480919F
:107F8000C00085FFB9CEBCCE8EE10E94C73CA2CD19
:0C7F900085E90E94C73C9ECDF894FFCF0D
:027F9C00800063
:040000030000780081
:00000001FF